S015000070726163746963612031625F322E7372656384
S11300000C942A000C9434000C9434000C943400A6
S11300100C9434000C9434000C9434000C9434008C
S11300200C9434000C9434000C9434000C9434007C
S11300300C9434000C9434000C9434000C9434006C
S11300400C9434000C9434000C9434000C9434005C
S11300500C94340011241FBECFE5D4E0DEBFCDBF25
S11300600E9436000C949A000C9400008FEF8ABB17
S113007087BB81E08BBB88BB41E050E0E0E0F0E06F
S113008020C08FE493EC0197F1F700C00000440F07
S1130090551F48BBC52FDD279E01A1E8B0E80E948B
S11300A08B00880F892F881F990B91956FEF689F9C
S11300B09001699F300D1124CE01821B930B8BBBE1
S11300C03196EF30F105ECF2E0E0F0E020C08FE48F
S11300D093EC0197F1F700C000005695479548BB93
S11300E0C52FDD279E01A1E8B0E80E948B00880F90
S11300F0892F881F990B91956FEF689F9001699FD5
S1130100300D1124CE01821B930B8BBB3196EF3043
S1130110F105ECF2B3CFA29FB001B39FC001A39F3E
S1130120700D811D1124911DB29F700D811D11242C
S10B0130911D0895F894FFCF1E
S9030000FC
