S01D00007072616374696361345F696E7465727275704558542E73726563C3
S11300000C942A000C9473030C94A4030C943F00E6
S11300100C943F000C943F000C943F000C943F0060
S11300200C943F000C943F000C943F000C943F0050
S11300300C943F000C943F000C943F000C943F0040
S11300400C943F000C943F000C94D8030C943F0094
S11300500C943F0011241FBECFE5D4E0DEBFCDBF1A
S113006010E0A0E6B0E0EAEAF8E002C005900D92E4
S1130070A839B107D9F70E944A040C9453040C948C
S11300800000982F907F95BB95B39B7F95BB95B34C
S1130090986095BBE9EFF0E03197F1F700C00000FC
S11300A095B3977F95BBE3ECF9E03197F1F700C086
S11300B00000F0E18F9FC001112485BB85B38B7FC5
S11300C085BB85B3886085BB89EF90E00197F1F724
S11300D000C0000085B3877F85BBE3ECF9E031976E
S11300E0F1F700C00000089582E00E94410088E218
S11300F00E9441008EE00E94410086E00E9441007F
S113010081E00E94410080E80E9441000895982FF8
S1130110907F95BB95B39C6095BBE9EFF0E0319778
S1130120F1F700C0000095B3977F95BB95B39B7F13
S113013095BBE3ECF9E03197F1F700C00000F0E182
S11301408F9FC001112485BB85B38C6085BB89EF6B
S113015090E00197F1F700C0000085B3877F85BB6D
S113016085B38B7F85BBE3ECF9E03197F1F700C0F1
S11301700000089580E40E94410089EF90E0019717
S1130180F1F700C000008FE10E94870089EF90E042
S11301900197F1F700C0000085E10E94870089EF14
S11301A090E00197F1F700C0000085E10E9487000C
S11301B089EF90E00197F1F700C000008FE10E9401
S11301C0870089EF90E00197F1F700C000008AE012
S11301D00E94870089EF90E00197F1F700C00000CA
S11301E085E10E94870089EF90E00197F1F700C054
S11301F000008FE10E94870089EF90E00197F1F7FA
S113020000C0000080E00E94870089EF90E0019721
S1130210F1F700C00000089588E40E94410089EFCE
S113022090E00197F1F700C0000080E00E94870091
S113023089EF90E00197F1F700C000008AE00E9486
S1130240870089EF90E00197F1F700C000008FE18B
S11302500E94870089EF90E00197F1F700C0000049
S11302608FE10E94870089EF90E00197F1F700C0C9
S113027000008FE10E94870089EF90E00197F1F779
S113028000C000008EE00E94870089EF90E0019793
S1130290F1F700C0000084E00E94870089EF90E03D
S11302A00197F1F700C0000080E00E94870089EF09
S11302B090E00197F1F700C00000089580E50E94E6
S11302C0410089EF90E00197F1F700C0000080E061
S11302D00E94870089EF90E00197F1F700C00000C9
S11302E083E00E94870089EF90E00197F1F700C056
S11302F0000087E00E94870089EF90E00197F1F702
S113030000C0000086E10E94870089EF90E0019719
S1130310F1F700C0000088E00E94870089EF90E0B8
S11303200197F1F700C0000084E10E94870089EF83
S113033090E00197F1F700C0000080E00E94870080
S113034089EF90E00197F1F700C0000080E00E947F
S1130350870089EF90E00197F1F700C0000008954D
S113036088E50E94410089EF90E00197F1F700C011
S1130370000080E00E94870089EF90E00197F1F788
S113038000C0000080E00E94870089EF90E00197A0
S1130390F1F700C0000080E00E94870089EF90E040
S11303A00197F1F700C0000084E10E94870089EF03
S11303B090E00197F1F700C0000088E00E948700F8
S11303C089EF90E00197F1F700C0000086E10E94F8
S11303D0870089EF90E00197F1F700C0000087E003
S11303E00E94870089EF90E00197F1F700C00000B8
S11303F083E00E94870089EF90E00197F1F700C045
S1130400000008950F931F93CF93DF93CDB7DEB70A
S113041027970FB6F894DEBF0FBECDBF87E0E1E6A5
S1130420F0E0DE01119601900D928A95E1F780E6E5
S11304300E94410089EF90E00197F1F700C00000AD
S113044000E010E011C0E1E0F0E0EC0FFD1FE00F70
S1130450F11F80810E94870089EF90E00197F1F7F6
S113046000C000000F5F1F4F0730110564F327968B
S11304700FB6F894DEBF0FBECDBFDF91CF911F91B1
S11304800F9108950F931F93CF93DF93CDB7DEB7EA
S113049027970FB6F894DEBF0FBECDBF87E0E8E61E
S11304A0F0E0DE01119601900D928A95E1F788E65D
S11304B00E94410089EF90E00197F1F700C000002D
S11304C000E010E011C0E1E0F0E0EC0FFD1FE00FF0
S11304D0F11F80810E94870089EF90E00197F1F776
S11304E000C000000F5F1F4F0730110564F327960B
S11304F00FB6F894DEBF0FBECDBFDF91CF911F9131
S11305000F9108950F931F93CF93DF93CDB7DEB769
S113051027970FB6F894DEBF0FBECDBF87E0EFE696
S1130520F0E0DE01119601900D928A95E1F780E7E3
S11305300E94410089EF90E00197F1F700C00000AC
S113054000E010E011C0E1E0F0E0EC0FFD1FE00F6F
S1130550F11F80810E94870089EF90E00197F1F7F5
S113056000C000000F5F1F4F0730110564F327968A
S11305700FB6F894DEBF0FBECDBFDF91CF911F91B0
S11305800F9108950F931F93CF93DF93CDB7DEB7E9
S113059027970FB6F894DEBF0FBECDBF87E0E6E71E
S11305A0F0E0DE01119601900D928A95E1F788E75B
S11305B00E94410089EF90E00197F1F700C000002C
S11305C000E010E011C0E1E0F0E0EC0FFD1FE00FEF
S11305D0F11F80810E94870089EF90E00197F1F775
S11305E000C000000F5F1F4F0730110564F327960A
S11305F00FB6F894DEBF0FBECDBFDF91CF911F9130
S11306000F9108950F931F93CF93DF938C01C0E054
S1130610D0E003C00E9487002196F801EC0FFD1F73
S113062080818111F7CFDF91CF911F910F910895B0
S113063081E00E944100089582E00E9441000895F3
S113064080680E94410008950E94180381EE94E09E
S11306500197F1F700C000000E941C030E94BA0039
S113066081EE94E00197F1F700C000000E940C01B4
S113067081EE94E00197F1F700C000000E945E0152
S113068081EE94E00197F1F700C000000E94B001F0
S113069081EE94E00197F1F700C000000E9402028D
S11306A081EE94E00197F1F700C000000E9442023D
S11306B081EE94E00197F1F700C000000E948202ED
S11306C081EE94E00197F1F700C000000E94C2029D
S11306D00E94180381EE94E00197F1F700C0000036
S11306E00E941C0308951F920F920FB60F921124BB
S11306F02F933F934F935F936F937F938F939F9326
S1130700AF93BF93EF93FF930E9418030E941C03BF
S11307108DE790E00E94020380E00E9420038CE8B1
S113072090E00E940203FF91EF91BF91AF919F91DE
S11307308F917F916F915F914F913F912F910F9086
S11307400FBE0F901F9018951F920F920FB60F9225
S113075011242F933F934F935F936F937F938F93C2
S11307609F93AF93BF93CF93DF93EF93FF930E9435
S113077018030E941C03C0E0D0E004C08C2F0E9428
S113078087002196C430D105CCF3FF91EF91DF911E
S1130790CF91BF91AF919F918F917F916F915F9115
S11307A04F913F912F910F900FBE0F901F9018956E
S11307B01F920F920FB60F9211242F933F934F93D2
S11307C05F936F937F938F939F93AF93BF93CF93D5
S11307D0DF93EF93FF930E9418030E941C03C4E06D
S11307E0D0E004C08C2F0E9487002196C830D10528
S11307F0CCF3FF91EF91DF91CF91BF91AF919F9196
S11308008F917F916F915F914F913F912F910F90B5
S11308100FBE0F901F901895F8948FEF8ABB91E04C
S11308209BBB84BB15BA93EF91BB82BB8BEF87BB99
S113083084E088BB8BB7806E8BBF85B7826085BF31
S113084085B7886085BF84B784BF7894089590E0A5
S11308500DC0EFE4F3EC3197F1F700C00000809194
S11308606000880F809360008BBB9F5F973088F394
S113087090E00DC0EFE4F3EC3197F1F700C0000015
S1130880809160008695809360008BBB9F5F97305A
S113089088F308950E940C040E9474000E942403AB
S10D08A00E942704FDCFF894FFCF57
S11308AA010E1F151F1F1F0A1F15151F15151F11CE
S11308BA111B1F1F1F0E11150A1F1515004368E18E
S11308CA76657A2056E17A7175657A00416C616EB3
S10B08DA20426172756368009D
S9030000FC
