:100000000C942A000C943F000C943F000C943F0089
:100010000C943F000C943F000C943F000C943F0064
:100020000C943F000C943F000C943F000C943F0054
:100030000C943F000C943F000C943F000C943F0044
:100040000C943F000C943F000C943F000C94410032
:100050000C943F0011241FBECFE5D4E0DEBFCDBF1E
:1000600010E0A0E6B0E0E0E3FBE002C005900D92F6
:10007000A837B107D9F70E94B2000C9496050C94EA
:1000800000001F920F920FB60F9211248F9386B328
:1000900088BB8F910F900FBE0F901F901895F8940A
:1000A0008FEF84BB90EF91BB87BB83B7806683BF24
:1000B00083B7816083BF80E88CBF89B7826089BFC6
:1000C00078940895623051F0633001F1613009F0A5
:1000D00041C0FC01808190E0C0973EC0FC012081BE
:1000E00030E020533109A901440F551F220F331F5F
:1000F000220F331F220F331F240F351F418150E081
:1001000040535109C901840F951F26C0FC0120816D
:1001100030E02053310964E6629FA001639F500DD7
:100120001124218130E020533109B901660F771F76
:10013000220F331F220F331F220F331F260F371FAB
:10014000240F351F428150E040535109C901840FEB
:10015000951F02C080E090E08F3F910511F008F0FC
:100160008FEF0895CF93DF93CDB7DEB729970FB602
:10017000F894DEBF0FBECDBF80E390E3DC0189833E
:100180009A83AB83BC8380916000909161009E83D1
:100190008D831F82188619860E944F000E94EC01F1
:1001A00080E00E943D028BE690E00E942A0280E0FF
:1001B0000E94410285E690E00E942A020E944502C8
:1001C00000E0B12C10E00F2EF3E07F2EF02D0F2E6B
:1001D000F5E7EF2EF0E0FF2EF02D1E0125E0220EB8
:1001E000311C0F2EF7E08F2EF02DC12C9924939403
:1001F0006894662461F80F2EF0E35F2EF02D123024
:1002000009F483C028F4112351F0113081F0F7CFA5
:10021000133009F47DC0173009F4A0C0F0CF85E099
:100220000E943D028BE00E944102192DE8CF0E94FE
:10023000B1020E94490220ED280F992D2A3008F0C2
:100240009C2D9923D1F0992D033008F09C2D9923F2
:10025000A1F0E1E0F0E0EC0FFD1FE00FF11D808365
:100260000E94FF010F5F8FE798E321E081509040EB
:100270002040E1F700C00000C2CF833249F50023DF
:1002800009F4BDCF0E94390281EE94E00197F1F7A5
:1002900000C0000083E790E00E942A0281EE94E013
:1002A0000197F1F700C000000E943902E1E0F0E0A0
:1002B000EC0FFD1FE00FF11D508201509FE728E376
:1002C00081E0915020408040E1F700C0000097CFCE
:1002D000813409F094CF9FE728E381E091502040DA
:1002E0008040E1F700C00000602FCE0101960E941F
:1002F0006200B82E9FE728E381E0915020408040C3
:10030000E1F700C00000162D7ACFBCBE172D77CFC5
:1003100085E00E943D0280E790E00E942A0285E08D
:100320000E943D021F92BF92FF92EF923F922F9246
:100330000E94C502C1010E942A029FE728E381E0D2
:10034000915020408040E1F700C000000F900F90D6
:100350000F900F900F900F90182D51CF8BE00E94AF
:10036000410280E790E00E942A028BE00E94410255
:100370009FE728E381E0915020408040E1F700C0F2
:1003800000000C2DBC2C1C2D3ACF982F907F95BBD4
:10039000AA98AB9AE9EFF0E03197F1F700C00000BE
:1003A000AB98E3ECF9E03197F1F700C00000F0E121
:1003B0008F9FC001112485BBAA98AB9A89EF90E06A
:1003C0000197F1F700C00000AB98E3ECF9E031973A
:1003D000F1F700C00000089582E00E94C50188E2A4
:1003E0000E94C5018EE00E94C50186E00E94C50101
:1003F00081E00E94C50180E80E94C5010895982F00
:10040000907F95BB95B39C6095BBE9EFF0E0319789
:10041000F1F700C00000AB98AA98E3ECF9E031973F
:10042000F1F700C00000F0E18F9FC001112485BBEF
:1004300085B38C6085BB89EF90E00197F1F700C030
:100440000000AB98AA98E3ECF9E03197F1F700C00F
:1004500000000895CF93DF93EC018881882331F069
:1004600021960E94FF0189918111FBCFDF91CF91ED
:10047000089580E10E94C501089580680E94C50129
:100480000895806C0E94C50108958CE00E94C5010A
:10049000089582B38F3B99F120F48F3709F443C05C
:1004A00056C08F3DC1F08F3E09F051C080B38F70B0
:1004B0008B3069F018F4873061F005C08D3029F079
:1004C0008E3009F446C080E2089582E3089583E304
:1004D000089581E4089580B38F708B3061F018F433
:1004E000873059F004C08D3021F08E30A1F180E2C8
:1004F000089585E3089586E3089582E4089580B31E
:100500008F708B3061F018F4873059F004C08D3053
:1005100021F08E3011F180E2089588E3089589E397
:10052000089583E4089580B38F708B3061F018F4E0
:10053000873059F004C08D3021F08E3081F080E298
:10054000089580E3089583E2089584E4089580E2A5
:10055000089581E3089584E3089587E308958AE286
:10056000089582B38F3D41F08F3E19F08F3B51F4D7
:1005700006C08FED82BB08958FEB82BB08958FE795
:1005800082BB08958FEE82BB0895AEE0B0E0EBEC45
:10059000F2E00C946D050D891E8986E08C831A8328
:1005A00009838FEF9FE79E838D83AE01475E5F4F88
:1005B0006F89788DCE0101960E94E702EF81F88560
:1005C000E00FF11F10822E96E4E00C948905ACE058
:1005D000B0E0EDEEF2E00C945F057C016B018A0166
:1005E000FC0117821682838181FFBDC1CE01019675
:1005F0004C01F7019381F60193FD859193FF819161
:100600006F01882309F4ABC1853239F493FD8591DC
:1006100093FF81916F01853229F4B70190E00E9428
:10062000CF04E7CF512C312C20E02032A0F48B32C4
:1006300069F030F4803259F0833269F420612CC0C3
:100640008D3239F0803339F4216026C02260246075
:1006500023C0286021C027FD27C030ED380F3A3075
:1006600078F426FF06C0FAE05F9E300D1124532E69
:1006700013C08AE0389E300D1124332E20620CC046
:100680008E3221F426FD6BC1206406C08C3611F435
:10069000206802C0883641F4F60193FD859193FFEE
:1006A00081916F018111C1CF982F9F7D9554933017
:1006B00028F40C5F1F4FFFE3F9830DC0833631F040
:1006C000833771F0833509F05BC022C0F801808167
:1006D00089830E5F1F4F44244394512C540115C04D
:1006E0003801F2E06F0E711CF801A080B18026FF86
:1006F00003C0652D70E002C06FEF7FEFC5012C874E
:100700000E94C4042C0183012C852F77222E17C050
:100710003801F2E06F0E711CF801A080B18026FF55
:1007200003C0652D70E002C06FEF7FEFC5012C871D
:100730000E94B9042C012C852068222E830123FC01
:100740001BC0832D90E048165906B0F4B70180E233
:1007500090E00E94CF043A94F4CFF50127FC8591F4
:1007600027FE81915F01B70190E00E94CF04311014
:100770003A94F1E04F1A51084114510471F7E5C061
:10078000843611F0893639F5F80127FF07C06081FA
:100790007181828193810C5F1F4F08C060817181DC
:1007A000882777FD8095982F0E5F1F4F2F76B22EEA
:1007B00097FF09C090958095709561957F4F8F4FF9
:1007C0009F4F2068B22E2AE030E0A4010E9401056C
:1007D000A82EA81844C0853729F42F7EB22E2AE00F
:1007E00030E025C0F22FF97FBF2E8F36C1F018F40C
:1007F000883579F0B4C0803719F0883721F0AFC060
:100800002F2F2061B22EB4FE0DC08B2D8460B82E28
:1008100009C024FF0AC09F2F9660B92E06C028E0A9
:1008200030E005C020E130E002C020E132E0F80114
:10083000B7FE07C060817181828193810C5F1F4F79
:1008400006C06081718180E090E00E5F1F4FA401BF
:100850000E940105A82EA818FB2DFF77BF2EB6FE1B
:100860000BC02B2D2E7FA51450F4B4FE0AC0B2FC91
:1008700008C02B2D2E7E05C07A2C2B2D03C07A2C80
:1008800001C0752C24FF0DC0FE01EA0DF11D808111
:10089000803311F4297E09C022FF06C0739473943B
:1008A00004C0822F867809F0739423FD13C020FFC3
:1008B00006C05A2C731418F4530C5718732C731465
:1008C00068F4B70180E290E02C870E94CF04739413
:1008D0002C85F5CF731410F4371801C0312C24FF88
:1008E00012C0B70180E390E02C870E94CF042C85D2
:1008F00022FF17C021FF03C088E590E002C088E70F
:1009000090E0B7010CC0822F867859F021FD02C01B
:1009100080E201C08BE227FD8DE2B70190E00E94EA
:10092000CF04A51438F4B70180E390E00E94CF040F
:100930005A94F7CFAA94F401EA0DF11D8081B70112
:1009400090E00E94CF04A110F5CF332009F451CEDE
:10095000B70180E290E00E94CF043A94F6CFF7010D
:100960008681978102C08FEF9FEF2C96E2E10C9475
:100970007B05FC010590615070400110D8F780950F
:1009800090958E0F9F1F0895FC016150704001905B
:100990000110D8F7809590958E0F9F1F08950F93A3
:1009A0001F93CF93DF93182F092FEB018B8181FDCC
:1009B00003C08FEF9FEF20C082FF10C04E815F8188
:1009C0002C813D81421753077CF4E881F9819F0116
:1009D0002F5F3F4F39832883108306C0E885F98550
:1009E000812F0995892B29F72E813F812F5F3F4F5A
:1009F0003F832E83812F902FDF91CF911F910F91F5
:100A00000895FA01AA27283051F1203181F1E894A4
:100A10006F936E7F6E5F7F4F8F4F9F4FAF4FB1E0F1
:100A20003ED0B4E03CD0670F781F891F9A1FA11DEC
:100A3000680F791F8A1F911DA11D6A0F711D811DED
:100A4000911DA11D20D009F468943F912AE0269FB2
:100A500011243019305D3193DEF6CF010895462F11
:100A60004770405D4193B3E00FD0C9F7F6CF462FF2
:100A70004F70405D4A3318F0495D31FD405241935B
:100A800002D0A9F7EACFB4E0A69597958795779518
:100A90006795BA95C9F700976105710508959B019F
:100AA000AC010A2E06945795479537952795BA9528
:100AB000C9F7620F731F841F951FA01D08952F9201
:100AC0003F924F925F926F927F928F929F92AF92DE
:100AD000BF92CF92DF92EF92FF920F931F93CF932B
:100AE000DF93CDB7DEB7CA1BDB0B0FB6F894DEBFC2
:100AF0000FBECDBF09942A88398848885F846E84E8
:100B00007D848C849B84AA84B984C884DF80EE8031
:100B1000FD800C811B81AA81B981CE0FD11D0FB63A
:100B2000F894DEBF0FBECDBFED010895F894FFCF5E
:100B300000000000004E5545564F20442E433D0016
:080B40002020202000256400A4
:00000001FF
