S013000070726163746963615F31632E73726563D7
S11300000C942A000C943C000C943C000C943C008E
S11300100C943C000C943C000C943C000C943C006C
S11300200C943C000C943C000C943C000C943C005C
S11300300C943C000C943C000C943C000C943C004C
S11300400C943C000C943C000C943C000C943C003C
S11300500C943C0011241FBECFE5D4E0DEBFCDBF1D
S113006020E0A0E6B0E001C01D92A236B207E1F79D
S11300700E943E000C9452000C9400001ABA8FEFB8
S113008087BB8BBB89B390E0909361008093600041
S113009083E294EF0197F1F700C0000080916000C3
S10B00A088BBF0CFF894FFCFF8
S9030000FC
