:100000000C942A000C9447000C9447000C94470071
:100010000C9447000C9447000C9447000C94470044
:100020000C9447000C9447000C9447000C94470034
:100030000C9447000C9447000C9447000C94470024
:100040000C9447000C9447000C9447000C94470014
:100050000C94470011241FBECFE5D4E0DEBFCDBF16
:1000600010E0A0E6B0E0E4E1F1E002C005900D92FE
:10007000A436B107D9F720E0A4E6B0E001C01D9294
:10008000A636B207E1F70E9449000C9488000C9450
:1000900000008FEF8ABB87BB84BB81BBC2E6D0E088
:1000A000A0E6B0E0E4E6F0E088818BBB8C9188BBF1
:1000B000888185BB8C9182BB2FE986E891E0215035
:1000C00080409040E1F700C000008C918BBB88819C
:1000D00088BB8C9185BB888182BB2FE986E891E043
:1000E000215080409040E1F700C0000080818BBB30
:1000F000808188BB808185BB808182BB2FE986E8B7
:1001000091E0215080409040E1F700C00000CCCF4A
:04011000F894FFCF91
:04011400F0000F00E8
:00000001FF
