S01E00005072616374696361345F696E7465727275705F3332382E73726563D7
S11300000C9434000C9449000C9449000C944B005B
S11300100C9449000C9449000C9449000C94490038
S11300200C9449000C9449000C9449000C94490028
S11300300C9449000C9449000C9449000C94490018
S11300400C9449000C9449000C9449000C94490008
S11300500C9449000C9449000C9449000C944900F8
S11300600C9449000C94490011241FBECFEFD8E032
S1130070DEBFCDBF11E0A0E0B1E0EEEBF2E002C0E4
S113008005900D92A230B107D9F70E944A010C9451
S11300905D010C9400001F920F920FB60F92112471
S11300A08F9383B18770853051F0863019F0833097
S11300B089F40BC083B188B9109200010BC083B1DD
S11300C088B981E08093000105C083B188B982E0DA
S11300D0809300018F910F900FBE0F901F90189581
S11300E0F8948FEF8AB91BB887B918B888EF84B928
S11300F087E085B9E8E6F0E0808181608083EBE603
S1130100F0E08081876080837894089581E0809313
S113011001018BB9809100018823C9F10895909160
S11301200001911142C0EFE4F3EC3197F1F700C004
S1130130000090910101990F909301019BB98150A6
S113014071F7809100018823A1F008959091000136
S113015091112BC0EFE4F3EC3197F1F700C00000EC
S1130160909101019695909301019BB9815071F78B
S113017008958FE493EC0197F1F700C0000080919B
S113018001018695809301018BB986E0DFCFEFE40E
S1130190F3EC3197F1F700C0000080910101880F62
S11301A0809301018BB986E0BACF0895CF93DF9392
S11301B0109201011BB82FE58AEE90E02150804097
S11301C09040E1F700C00000E7E068E0A0E0F0E064
S11301D041E050E025C00196209100012130B9F59D
S11301E09A01082E02C0220F331F0A94E2F7722FDD
S11301F030910101232B2BB9CFE4D3EC2197F1F7F4
S113020000C0000021E0280F261728F38091010187
S1130210782B709301017BB9EE2359F06150E150C2
S1130220662371F080910001813089F48A2F9F2F19
S1130230D7CF8FE493EC0197F1F700C0000007C01B
S1130240809101018160809301018BB9E7CFDF9137
S1130250CF91089583E09FEF909301019BB9EBE761
S1130260F2E93197F1F700C00000109201011BB8C8
S1130270E3EEF7E53197F1F700C00000815061F734
S1130280FFE52AEE80E0F15020408040E1F700C015
S1130290000008950E94700080910001813039F0BF
S11302A018F0823039F0FACF0E948600F5CF0E9410
S11102B0D600F2CF0E942A01EFCFF894FFCFC0
S10502BE010138
S9030000FC
