S01E00007072616374696361335F7465636C61646F5F63616C632E737265635F
S11300000C942A000C943F000C943F000C943F0085
S11300100C943F000C943F000C943F000C943F0060
S11300200C943F000C943F000C943F000C943F0050
S11300300C943F000C943F000C943F000C943F0040
S11300400C943F000C943F000C943F000C943F0030
S11300500C943F0011241FBECFE5D4E0DEBFCDBF1A
S113006010E0A0E6B0E0E4E3FCE002C005900D92ED
S1130070A637B107D9F70E94A0000C9418060C9477
S11300800000823451F018F4813469F004C08334E0
S113009031F0843431F080E208958DE2089588E5EA
S11300A008958FE208958BE20895623051F0633031
S11300B001F1613009F041C0FC01808190E0C097FA
S11300C00895FC01208130E020533109A901440F37
S11300D0551F220F331F220F331F220F331F240FEC
S11300E0351F418150E040535109C901840F951FC8
S11300F00895FC01208130E02053310964E6629FB9
S1130100A001639F500D1124218130E02053310957
S1130110B901660F771F220F331F220F331F220FDF
S1130120331F260F371F240F351F428150E04053E1
S11301305109C901840F951F089580E090E0089546
S1130140CF93DF93CDB7DEB76C970FB6F894DEBFCD
S11301500FBECDBF8FEF84BB90EF91BB8ABB809164
S11301606000909161009A838983FE0133968EE04A
S1130170DF011D928A95E9F780E390E3DC01898B26
S11301809A8BAB8BBC8B8D8B9E8BAF8BB88F0E9465
S11301905A02412C512C3201A12CB12CC12CD12C4E
S11301A0212C912C00E216E033243394812C0F2E61
S11301B0F2E7EF2EF0E0FF2EF02DCE0101969C8F9A
S11301C08B8F03C0132D01C014E0133009F47FC0DA
S11301D028F41123B9F3113051F0F7CF153009F495
S11301E0DEC008F40BC1163009F42BC1EECF0E9417
S11301F01F030E94B70220ED280F932D2A3008F028
S1130200982D9923D9F0932DA2E0A91508F4982DDF
S11302109923A1F0E1E1F0E0EC0FFD1FE90DF11DE0
S113022080830E946D029394BFE52AEE80E0B15072
S113023020408040E1F700C00000C7CF9FEB980F3B
S11302409430D0F40E944100082F898F8A8ECE0109
S113025049960E9498029FE5AAEEB0E09150A04012
S1130260B040E1F700C00000692DCE0141960E9424
S113027055006C0113E0A9CF833209F0A6CF0E9488
S1130280AF0281EE94E00197F1F700C0000080E72F
S113029090E00E949802A1EEB4E01197F1F700C03B
S11302A000000E94AF02E1E1F0E0EC0FFD1FE90D58
S11302B0F11DB0E3B08391109A942FE58AEE90E09B
S11302C0215080409040E1F700C000007ECF0E94A2
S11302D01F030E94B70220ED280F932D2A3008F047
S11302E0982D9923D9F0932DA2E0A21508F4982D06
S11302F09923A1F0E5E1F0E0EC0FFD1FE20DF11D03
S113030080830E946D022394BFE52AEE80E0B15001
S113031020408040E1F700C0000057CF8A32A1F4AA
S11303208DE30E946D029FE5AAEEB0E09150A040DB
S1130330B040E1F700C00000622DCE0145960E9456
S113034055005C0115E041CF833209F03ECF0E9495
S1130350AF0281EE94E00197F1F700C0000080E75E
S113036090E00E949802A1EEB4E01197F1F700C06A
S113037000000E94AF02E5E1F0E0EC0FFD1FE20D8A
S1130380F11DB0E3B08321102A942FE58AEE90E0AA
S1130390215080409040E1F700C0000016CF0D329C
S11303A091F018F40B3231F00FCF0F32F1F0083521
S11303B089F00ACFC5018C0D9D1D2C01612C712C77
S11303C08BBB14E002CF26014A185B08612C712C08
S11303D014E0FBCEAC9C2001AD9C500CBC9C500C9A
S11303E01124612C712C14E0F0CEC601B5010E94D9
S11303F033032B01612C712C14E0E7CE882D0E946D
S1130400B3027F926F925F924F92FF92EF92AC8D04
S1130410AF93BB8DBF930E944703CE0101960E9408
S113042098022FE58AEE90E0215080409040E1F759
S113043000C000000FB6F894DEBF0FBECDBF182D6C
S1130440C4CE0E94A70281EE94E00197F1F700C0A8
S113045000000E94AB02A1EEB4E01197F1F700C0D6
S11304600000182DB2CE982F907F95BBAA98AB9A16
S1130470E9EFF0E03197F1F700C00000AB98E3EC4E
S1130480F9E03197F1F700C00000F0E18F9FC0015F
S1130490112485BBAA98AB9A89EF90E00197F1F7F4
S11304A000C00000AB98E3ECF9E03197F1F700C02D
S11304B00000089582E00E94330288E20E94330221
S11304C08EE00E94330286E00E94330281E00E94A3
S11304D0330280E80E9433020895982F907F95BBE1
S11304E095B39C6095BBE9EFF0E03197F1F700C05C
S11304F00000AB98AA98E3ECF9E03197F1F700C05B
S11305000000F0E18F9FC001112485BB85B38C608E
S113051085BB89EF90E00197F1F700C00000AB982C
S1130520AA98E3ECF9E03197F1F700C000000895D0
S1130530CF93DF93EC018881882331F021960E94C8
S11305406D0289918111FBCFDF91CF91089581E0F4
S11305500E943302089582E00E943302089580E1EC
S11305600E9433020895806C0E943302089582B37E
S11305708F3B99F120F48F3709F443C056C08F3D67
S1130580C1F08F3E09F051C080B38F708B3069F099
S113059018F4873061F005C08D3029F08E3009F4ED
S11305A046C080E2089582E3089583E3089581E4D8
S11305B0089580B38F708B3061F018F4873059F050
S11305C004C08D3021F08E30A1F180E2089585E3DE
S11305D0089586E3089582E4089580B38F708B3084
S11305E061F018F4873059F004C08D3021F08E305A
S11305F011F180E2089588E3089589E3089583E47E
S1130600089580B38F708B3061F018F4873059F0FF
S113061004C08D3021F08E3081F080E2089580E3B3
S1130620089583E2089584E4089580E2089581E3BF
S1130630089584E3089587E308958AE2089582B3D0
S11306408F3D41F08F3E19F08F3B51F406C08FED82
S113065082BB08958FEB82BB08958FE782BB089518
S11306608FEE82BB0895AA1BBB1B51E107C0AA1FD2
S1130670BB1FA617B70710F0A61BB70B881F991F3F
S11306805A95A9F780959095BC01CD010895AEE0E7
S1130690B0E0EDE4F3E00C94EF050D891E8986E0EB
S11306A08C831A8309838FEF9FE79E838D83AE012A
S11306B0475E5F4F6F89788DCE0101960E94690372
S11306C0EF81F885E00FF11F10822E96E4E00C9480
S11306D00B06ACE0B0E0EFE6F3E00C94E1057C013E
S11306E06B018A01FC0117821682838181FFBDC1DF
S11306F0CE0101964C01F7019381F60193FD85919A
S113070093FF81916F01882309F4ABC1853239F4D9
S113071093FD859193FF81916F01853229F4B7018F
S113072090E00E945105E7CF512C312C20E020327B
S1130730A0F48B3269F030F4803259F0833269F4DA
S113074020612CC08D3239F0803339F4216026C009
S11307502260246023C0286021C027FD27C030ED1B
S1130760380F3A3078F426FF06C0FAE05F9E300D69
S11307701124532E13C08AE0389E300D1124332ED9
S113078020620CC08E3221F426FD6BC1206406C0A9
S11307908C3611F4206802C0883641F4F60193FDCA
S11307A0859193FF81916F018111C1CF982F9F7D16
S11307B09554933028F40C5F1F4FFFE3F9830DC069
S11307C0833631F0833771F0833509F05BC022C082
S11307D0F801808189830E5F1F4F44244394512C78
S11307E0540115C03801F2E06F0E711CF801A080AD
S11307F0B18026FF03C0652D70E002C06FEF7FEF6C
S1130800C5012C870E9446052C0183012C852F7776
S1130810222E17C03801F2E06F0E711CF801A0807F
S1130820B18026FF03C0652D70E002C06FEF7FEF3B
S1130830C5012C870E943B052C012C852068222EA3
S1130840830123FC1BC0832D90E048165906B0F4A5
S1130850B70180E290E00E9451053A94F4CFF5018B
S113086027FC859127FE81915F01B70190E00E94EA
S1130870510531103A94F1E04F1A510841145104D2
S113088071F7E5C0843611F0893639F5F80127FF90
S113089007C060817181828193810C5F1F4F08C002
S11308A060817181882777FD8095982F0E5F1F4F97
S11308B02F76B22E97FF09C090958095709561951B
S11308C07F4F8F4F9F4F2068B22E2AE030E0A40163
S11308D00E948305A82EA81844C0853729F42F7ECA
S11308E0B22E2AE030E025C0F22FF97FBF2E8F36DA
S11308F0C1F018F4883579F0B4C0803719F088371E
S113090021F0AFC02F2F2061B22EB4FE0DC08B2D6D
S11309108460B82E09C024FF0AC09F2F9660B92EA8
S113092006C028E030E005C020E130E002C020E14C
S113093032E0F801B7FE07C0608171818281938142
S11309400C5F1F4F06C06081718180E090E00E5FF4
S11309501F4FA4010E948305A82EA818FB2DFF7722
S1130960BF2EB6FE0BC02B2D2E7FA51450F4B4FE63
S11309700AC0B2FC08C02B2D2E7E05C07A2C2B2D6C
S113098003C07A2C01C0752C24FF0DC0FE01EA0DB2
S1130990F11D8081803311F4297E09C022FF06C035
S11309A07394739404C0822F867809F0739423FDA2
S11309B013C020FF06C05A2C731418F4530C571894
S11309C0732C731468F4B70180E290E02C870E94C2
S11309D0510573942C85F5CF731410F4371801C0A6
S11309E0312C24FF12C0B70180E390E02C870E94D1
S11309F051052C8522FF17C021FF03C088E590E034
S1130A0002C088E790E0B7010CC0822F867859F0C5
S1130A1021FD02C080E201C08BE227FD8DE2B70117
S1130A2090E00E945105A51438F4B70180E390E0EA
S1130A300E9451055A94F7CFAA94F401EA0DF11DCE
S1130A408081B70190E00E945105A110F5CF3320B9
S1130A5009F451CEB70180E290E00E9451053A9426
S1130A60F6CFF7018681978102C08FEF9FEF2C9616
S1130A70E2E10C94FD05FC01059061507040011009
S1130A80D8F7809590958E0F9F1F0895FC016150B3
S1130A90704001900110D8F7809590958E0F9F1F9C
S1130AA008950F931F93CF93DF93182F092FEB0112
S1130AB08B8181FD03C08FEF9FEF20C082FF10C0A8
S1130AC04E815F812C813D81421753077CF4E8817C
S1130AD0F9819F012F5F3F4F39832883108306C01C
S1130AE0E885F985812F0995892B29F72E813F8186
S1130AF02F5F3F4F3F832E83812F902FDF91CF9124
S1130B001F910F910895FA01AA27283051F120313D
S1130B1081F1E8946F936E7F6E5F7F4F8F4F9F4F8D
S1130B20AF4FB1E03ED0B4E03CD0670F781F891FCF
S1130B309A1FA11D680F791F8A1F911DA11D6A0F9D
S1130B40711D811D911DA11D20D009F468943F9150
S1130B502AE0269F11243019305D3193DEF6CF014F
S1130B600895462F4770405D4193B3E00FD0C9F715
S1130B70F6CF462F4F70405D4A3318F0495D31FD82
S1130B804052419302D0A9F7EACFB4E0A6959795D5
S1130B90879577956795BA95C9F7009761057105AB
S1130BA008959B01AC010A2E0694579547953795F5
S1130BB02795BA95C9F7620F731F841F951FA01D4F
S1130BC008952F923F924F925F926F927F928F92ED
S1130BD09F92AF92BF92CF92DF92EF92FF920F93C8
S1130BE01F93CF93DF93CDB7DEB7CA1BDB0B0FB6D2
S1130BF0F894DEBF0FBECDBF09942A88398848888F
S1130C005F846E847D848C849B84AA84B984C88424
S1130C10DF80EE80FD800C811B81AA81B981CE0F1B
S1130C20D11D0FB6F894DEBF0FBECDBFED01089500
S1070C30F894FFCF62
S1130C3400000000000000000000000000000000AC
S1090C442000256C750080
S9030000FC
