:100000000C943D000C9452000C9452000C9452003D
:100010000C9452000C9452000C9452000C94520018
:100020000C9452000C9452000C9452000C94520008
:100030000C9452000C9452000C9452000C945200F8
:100040000C9452000C9452000C9452000C945001E9
:100050000C945200D701E001E701F501FC01030215
:10006000110218021F022D022D022D022D022D0257
:100070002D022D02EE010A02260211241FBECFE539
:10008000D4E0DEBFCDBF10E0A0E6B0E0E2E7F4E0F0
:1000900002C005900D92AC38B107D9F70E948801D3
:1000A0000C9437020C940000982F907F95BBAA986F
:1000B000AB9AE9EFF0E03197F1F700C00000AB98A0
:1000C000E3ECF9E03197F1F700C00000F0E18F9F19
:1000D000C001112485BBAA98AB9A89EF90E00197E3
:1000E000F1F700C00000AB98E3ECF9E03197F1F7CD
:1000F00000C00000089582E00E94540088E20E943F
:1001000054008EE00E94540086E00E94540081E07A
:100110000E94540080E80E9454000895982F907F18
:1001200095BB95B39C6095BBE9EFF0E03197F1F793
:1001300000C00000AB98AA98E3ECF9E03197F1F722
:1001400000C00000F0E18F9FC001112485BB85B382
:100150008C6085BB89EF90E00197F1F700C000004B
:10016000AB98AA98E3ECF9E03197F1F700C00000F2
:100170000895CF93DF93EC018881882331F0219695
:100180000E948E0089918111FBCFDF91CF9108955C
:1001900081E00E945400089580680E9454000895F0
:1001A0008CE00E945400089582B38F3B99F120F4B3
:1001B0008F3709F443C056C08F3DC1F08F3E09F020
:1001C00051C080B38F708B3069F018F4873061F0C4
:1001D00005C08D3029F08E3009F446C080E20895C4
:1001E00082E3089583E3089581E4089580B38F70D6
:1001F0008B3061F018F4873059F004C08D3021F055
:100200008E30A1F180E2089585E3089586E3089594
:1002100082E4089580B38F708B3061F018F48730DA
:1002200059F004C08D3021F08E3011F180E2089534
:1002300088E3089589E3089583E4089580B38F7077
:100240008B3061F018F4873059F004C08D3021F004
:100250008E3081F080E2089580E3089583E208956E
:1002600084E4089580E2089581E3089584E3089585
:1002700087E308958AE2089582B38F3D41F08F3E6F
:1002800019F08F3B51F406C08FED82BB08958FEBC0
:1002900082BB08958FE782BB08958FEE82BB0895DD
:1002A0001F920F920FB60F9211248F9386B388BBC3
:1002B0008F910F900FBE0F901F901895F8948FEFAD
:1002C00084BB80EF81BBBB9A88E183BF83B7846026
:1002D00083BF8AE38CBF82E089BF78940895CF936F
:1002E000DF93EC010E94C80087E00E94CC00CE01A1
:1002F0000E94B900DF91CF910895F89418BA83B79E
:100300008F7E83BF089583B7806183BF78940895FB
:100310000E945E010E947D010E947B000E94D0002D
:10032000D0E0C0E00F2EFEE17F2EF02D68948824EF
:1003300085F80F2EF2E29F2EF02D0F2EF4E2AF2E55
:10034000F02D0F2EF6E2BF2EF02D0F2EF8E2CF2E5D
:10035000F02D0F2EFBE2DF2EF02D0F2EFEE2EF2E02
:10036000F02D0F2EF1E3FF2EF02D04E317E30F2EF7
:10037000FAE36F2EF02D0CC00E943C010E94D400C5
:1003800080936000803219F00E94830103C0DF5F18
:10039000D43090F38091600090E0FC01F197E3315C
:1003A000F10508F05AC0E65DFF4F0C9431026CBEB7
:1003B00081E690E00E946F010E948301DC2FE8CF6C
:1003C0001CBF84E690E00E946F01DC2FE1CF0CBFE0
:1003D00088E690E00E946F01DC2FDACFFCBE8BE64E
:1003E00090E00E946F01DC2FD3CFECBE8FE690E04F
:1003F0000E946F01DC2FCCCFDCBE82E790E00E9430
:100400006F01DC2FC5CFCCBE85E790E00E946F0165
:10041000DC2FBECFBCBE89E790E00E946F01DC2FCD
:10042000B7CFACBE8DE790E00E946F01DC2FB0CF5C
:100430009CBE82E890E00E946F01DC2FA9CF8CBEA9
:1004400085E890E00E946F01DC2FA2CF7CBE89E896
:1004500090E00E946F01DC2F9BCF0E947D01DC2F7A
:1004600097CFEE0FFF1F0590F491E02D0994F894BB
:02047000FFCFBC
:1004720020446F00446F2300526500526523004DF3
:10048200690046610046412300536F6C00536F6C54
:0C04920023004C61004C61230053690002
:00000001FF
