S017000050726163746963615F6C63645F76322E737265634D
S11300000C942A000C943F000C943F000C943F0085
S11300100C943F000C943F000C943F000C943F0060
S11300200C943F000C943F000C943F000C943F0050
S11300300C943F000C943F000C943F000C943F0040
S11300400C943F000C943F000C943F000C943F0030
S11300500C943F0011241FBECFE5D4E0DEBFCDBF1A
S113006010E0A0E6B0E0E6E5F7E002C005900D92EE
S1130070A639B107D9F70E9441000C94A9030C9446
S113008000008FEF81BB8ABB12BA0E94FC00D2E051
S1130090DBBB0E94990383EC99E00197F1F700C060
S11300A000000E949D0383EC99E00197F1F700C0E2
S11300B0000080E00E94A1038CE790E00E948A0384
S11300C083EC99E00197F1F700C0000081E00E9401
S11300D0A5038BE890E00E948A039FEB27E289E066
S11300E0915020408040E1F700C000000E94990335
S11300F083EC99E00197F1F700C000000E949D0392
S11301000E943A0181EE94E00197F1F700C00000EB
S11301100E948C0181EE94E00197F1F700C0000089
S11301200E94DE0181EE94E00197F1F700C0000027
S11301300E94300281EE94E00197F1F700C00000C4
S11301400E94820281EE94E00197F1F700C0000062
S11301500E94C40281EE94E00197F1F700C0000010
S11301600E94060381EE94E00197F1F700C00000BD
S11301700E944803C0E08C2F0E94A1038C2F0E9490
S11301800F0181EE94E00197F1F700C00000CF5F0A
S1130190C83089F71BBA9FEB27E289E091502040D1
S11301A08040E1F700C0000073CF982F907F92BB8E
S11301B09298939AE9EFF0E03197F1F700C00000CC
S11301C09398E3ECF9E03197F1F700C00000F0E117
S11301D08F9FC001112482BB9298939A89EF90E07B
S11301E00197F1F700C000009398E3ECF9E0319730
S11301F0F1F700C00000089582E00E94D50088E273
S11302000E94D5008EE00E94D50086E00E94D500B1
S113021081E00E94D50080E80E94D5000895982FBF
S1130220907F92BB92B39C6092BBE9EFF0E0319770
S1130230F1F700C0000093989298E3ECF9E031974D
S1130240F1F700C00000F0E18F9FC001112482BBD0
S113025082B38C6082BB89EF90E00197F1F700C014
S1130260000093989298E3ECF9E03197F1F700C01D
S11302700000089580E40E94D50089EF90E0019782
S1130280F1F700C000008FE10E940F0189EF90E0B8
S11302900197F1F700C0000085E10E940F0189EF8A
S11302A090E00197F1F700C0000085E10E940F0182
S11302B089EF90E00197F1F700C000008FE10E9400
S11302C00F0189EF90E00197F1F700C000008AE088
S11302D00E940F0189EF90E00197F1F700C0000040
S11302E085E10E940F0189EF90E00197F1F700C0CA
S11302F000008FE10E940F0189EF90E00197F1F770
S113030000C0000080E00E940F0189EF90E0019797
S1130310F1F700C00000089588E40E94D50089EF39
S113032090E00197F1F700C0000080E00E940F0107
S113033089EF90E00197F1F700C000008AE00E9485
S11303400F0189EF90E00197F1F700C000008FE101
S11303500E940F0189EF90E00197F1F700C00000BF
S11303608FE10E940F0189EF90E00197F1F700C03F
S113037000008FE10E940F0189EF90E00197F1F7EF
S113038000C000008EE00E940F0189EF90E0019709
S1130390F1F700C0000084E00E940F0189EF90E0B3
S11303A00197F1F700C0000080E00E940F0189EF7F
S11303B090E00197F1F700C00000089580E50E94E5
S11303C0D50089EF90E00197F1F700C0000080E0CC
S11303D00E940F0189EF90E00197F1F700C000003F
S11303E083E00E940F0189EF90E00197F1F700C0CC
S11303F0000087E00E940F0189EF90E00197F1F778
S113040000C0000086E10E940F0189EF90E001978F
S1130410F1F700C0000088E00E940F0189EF90E02E
S11304200197F1F700C0000084E10E940F0189EFF9
S113043090E00197F1F700C0000080E00E940F01F6
S113044089EF90E00197F1F700C0000080E00E947E
S11304500F0189EF90E00197F1F700C000000895C3
S113046088E50E94D50089EF90E00197F1F700C07C
S1130470000080E00E940F0189EF90E00197F1F7FE
S113048000C0000080E00E940F0189EF90E0019716
S1130490F1F700C0000080E00E940F0189EF90E0B6
S11304A00197F1F700C0000084E10E940F0189EF79
S11304B090E00197F1F700C0000088E00E940F016E
S11304C089EF90E00197F1F700C0000086E10E94F7
S11304D00F0189EF90E00197F1F700C0000087E079
S11304E00E940F0189EF90E00197F1F700C000002E
S11304F083E00E940F0189EF90E00197F1F700C0BB
S113050000000895EF92FF920F931F93CF93DF9310
S1130510CDB7DEB727970FB6F894DEBF0FBECDBFB9
S113052087E0E0E6F0E0DE01119601900D928A95F5
S1130530E1F780E60E94D50089EF90E00197F1F79A
S113054000C000008E010F5F1F4F7E0198E0E90E8E
S1130550F11CF80181918F010E940F0189EF90E055
S11305600197F1F700C000000E151F0591F72796BB
S11305700FB6F894DEBF0FBECDBFDF91CF911F91B0
S11305800F91FF90EF900895EF92FF920F931F93B6
S1130590CF93DF93CDB7DEB727970FB6F894DEBFBE
S11305A00FBECDBF87E0E7E6F0E0DE0111960190D3
S11305B00D928A95E1F788E60E94D50089EF90E0D4
S11305C00197F1F700C000008E010F5F1F4F7E01FD
S11305D098E0E90EF11CF80181918F010E940F014E
S11305E089EF90E00197F1F700C000000E151F0598
S11305F091F727960FB6F894DEBF0FBECDBFDF91FB
S1130600CF911F910F91FF90EF900895EF92FF9279
S11306100F931F93CF93DF93CDB7DEB727970FB612
S1130620F894DEBF0FBECDBF87E0EEE6F0E0DE015A
S1130630119601900D928A95E1F780E70E94D5000A
S113064089EF90E00197F1F700C000008E010F5F81
S11306501F4F7E0198E0E90EF11CF80181918F0192
S11306600E940F0189EF90E00197F1F700C00000AC
S11306700E151F0591F727960FB6F894DEBF0FBE2F
S1130680CDBFDF91CF911F910F91FF90EF9008950F
S1130690EF92FF920F931F93CF93DF93CDB7DEB703
S11306A027970FB6F894DEBF0FBECDBF87E0E5E70E
S11306B0F0E0DE01119601900D928A95E1F788E74A
S11306C00E94D50089EF90E00197F1F700C0000087
S11306D08E010F5F1F4F7E0198E0E90EF11CF801B7
S11306E081918F010E940F0189EF90E00197F1F74A
S11306F000C000000E151F0591F727960FB6F89459
S1130700DEBF0FBECDBFDF91CF911F910F91FF9040
S1130710EF900895CF93DF93EC018881882331F023
S113072021960E940F0189918111FBCFDF91CF9116
S1130730089581E00E94D500089582E00E94D500CA
S1130740089580680E94D5000895806C0E94D500A9
S10907500895F894FFCFA8
S11307560E1F151F1F1F0A1F15151F15151F111113
S11307661B1F1F1F0E11150A1F1515004368E1767E
S1130776657A2056E17A7175657A00323031323005
S10907863930313133006B
S9030000FC
