S0120000505241435449434120382E7372656373
S11300000C942A000C943F000C943F000C943F0085
S11300100C943F000C943F000C9441000C943F005E
S11300200C943F000C943F000C943F000C943F0050
S11300300C943F000C943F000C943F000C943F0040
S11300400C943F000C943F000C943F000C943F0030
S11300500C943F0011241FBECFE5D4E0DEBFCDBF1A
S113006010E0A0E6B0E0E0E6FFE002C005900D92EB
S1130070AE37B107D9F70E94DE000C94AE070C949A
S113008000001F920F920FB60F9211248F9380B32A
S113009082BB8F910F900FBE0F901F901895F8940C
S11300A08FEF84BB90EF97BB81BB8FB582688FBD08
S11300B08EB58A618EBD8FEF97E097BD86BD88E3CC
S11300C091E09BBD8ABD89B7806189BF789408950A
S11300D0623051F0633001F1613009F041C0FC013C
S11300E0808190E0C0973EC0FC01208130E0205325
S11300F03109A901440F551F220F331F220F331F4B
S1130100220F331F240F351F418150E04053510902
S1130110C901840F951F26C0FC01208130E02053C3
S1130120310964E6629FA001639F500D112421816F
S113013030E020533109B901660F771F220F331FB6
S1130140220F331F220F331F260F371F240F351F93
S1130150428150E040535109C901840F951F02C0E8
S113016080E090E0853B910508F084EB0895853BA1
S113017008F084EB811105C08EE390E09BBD8ABD3D
S11301800895682F70E080E090E00E94EC0326E17F
S113019035E64AE357E30E947A042DE738E446E063
S11301A057E30E9458032AE037ED49E752E40E94DE
S11301B0F4020E94C0037BBD6ABD0895CF93DF9310
S11301C0CDB7DEB729970FB6F894DEBF0FBECDBF0B
S11301D080E390E3DC0189839A83AB83BC838091C1
S11301E06000909161009E838D831F82188619861A
S11301F00E944F000E941A0280E00E946B0285E672
S113020090E00E94580280E00E946F028EE690E027
S11302100E9458020E94730200E0B12C10E00F2EDD
S1130220F3E07F2EF02D0F2EFBE7EF2EF0E0FF2EF4
S1130230F02D1E0125E0220E311C0F2EF7E08F2E2B
S1130240F02DC12C992493946894662461F80F2EA0
S1130250F0E35F2EF02D123009F483C028F411234B
S113026051F0113081F0F7CF133009F47FC017300B
S113027009F4A2C0F0CF89E00E946B0288E00E94DA
S11302806F02192DE8CF0E94DF020E94770220ED51
S1130290280F992D2A3008F09C2D9923D1F0992DFF
S11302A0033008F09C2D9923A1F0E1E0F0E0EC0F7D
S11302B0FD1FE00FF11D80830E942D020F5F8FE769
S11302C098E321E0815090402040E1F700C0000015
S11302D0C2CF833249F5002309F4BDCF0E946702DF
S11302E081EE94E00197F1F700C0000089E790E007
S11302F00E94580281EE94E00197F1F700C00000DB
S11303000E946702E1E0F0E0EC0FFD1FE00FF11D39
S1130310508201509FE728E381E0915020408040C3
S1130320E1F700C0000097CF813409F094CF9FE734
S113033028E381E0915020408040E1F700C00000B4
S1130340602FCE0101960E946800B82E9FE728E333
S113035081E0915020408040E1F700C00000162D5C
S11303607ACF8B2D0E94B700172D75CF89E00E949C
S11303706B0286E790E00E94580289E00E946B02BB
S11303801F92BF92FF92EF923F922F920E94DD0440
S1130390C1010E9458029FE728E381E09150204068
S11303A08040E1F700C000000F900F900F900F9075
S11303B00F900F90182D4FCF88E00E946F0286E7B0
S11303C090E00E94580288E00E946F029FE728E3B1
S11303D081E0915020408040E1F700C000000C2DE6
S11303E0BC2C1C2D38CF982F907F95BBAA98AB9A24
S11303F0E9EFF0E03197F1F700C00000AB98E3ECCF
S1130400F9E03197F1F700C00000F0E18F9FC001DF
S1130410112485BBAA98AB9A89EF90E00197F1F774
S113042000C00000AB98E3ECF9E03197F1F700C0AD
S11304300000089582E00E94F30188E20E94F30123
S11304408EE00E94F30186E00E94F30181E00E94A5
S1130450F30180E80E94F3010895982F907F95BBE3
S113046095B39C6095BBE9EFF0E03197F1F700C0DC
S11304700000AB98AA98E3ECF9E03197F1F700C0DB
S11304800000F0E18F9FC001112485BB85B38C600F
S113049085BB89EF90E00197F1F700C00000AB98AD
S11304A0AA98E3ECF9E03197F1F700C00000089551
S11304B0CF93DF93EC018881882331F021960E9449
S11304C02D0289918111FBCFDF91CF91089580E1B5
S11304D00E94F301089580680E94F3010895806CDE
S11304E00E94F30108958CE00E94F301089588B3FB
S11304F08F3B99F120F48F3709F443C056C08F3DE8
S1130500C1F08F3E09F051C086B38F708B3069F013
S113051018F4873061F005C08D3029F08E3009F46D
S113052046C080E2089582E3089583E3089581E458
S1130530089586B38F708B3061F018F4873059F0CA
S113054004C08D3021F08E30A1F180E2089585E35E
S1130550089586E3089582E4089586B38F708B30FE
S113056061F018F4873059F004C08D3021F08E30DA
S113057011F180E2089588E3089589E3089583E4FE
S1130580089586B38F708B3061F018F4873059F07A
S113059004C08D3021F08E3081F080E2089580E334
S11305A0089583E2089584E4089580E2089581E340
S11305B0089584E3089587E308958AE2089588B34B
S11305C08F3D41F08F3E19F08F3B51F406C08FED03
S11305D088BB08958FEB88BB08958FE788BB089587
S11305E08FEE88BB08955058BB27AA270ED048C168
S11305F039D130F03ED120F031F49F3F11F41EF494
S11306002EC10EF4E095E7FB24C1E92F4AD180F313
S1130610BA17620773078407950718F071F49EF5FB
S113062062C10EF4E0950B2EBA2FA02D0B01B90177
S113063090010C01CA01A0011124FF27591B99F054
S1130640593F50F4503E68F11A16F040A22F232F60
S1130650342F4427585FF3CF469537952795A795B0
S1130660F0405395C9F77EF41F16BA0B620B730B57
S1130670840BBAF09150A1F0FF0FBB1F661F771FC8
S1130680881FC2F70EC0BA0F621F731F841F48F47D
S1130690879577956795B795F7959E3F08F0B3CF03
S11306A09395880F08F09927EE0F979587950895ED
S11306B00CD0E6C0DED040F0D5D030F021F45F3F5E
S11306C019F0C7C0511110C1CAC0EBD098F39923D7
S11306D0C9F35523B1F3951B550BBB27AA27621702
S11306E07307840738F09F5F5F4F220F331F441F47
S11306F0AA1FA9F333D00E2E3AF0E0E830D091507F
S11307005040E695001CCAF729D0FE2F27D0660F6B
S1130710771F881FBB1F261737074807AB07B0E8AA
S113072009F0BB0B802DBF01FF2793585F4F2AF0C0
S11307309E3F510568F08DC0D7C05F3FECF3983EF3
S1130740DCF3869577956795B795F7959F5FC9F71D
S1130750880F911D9695879597F90895E1E0660FA6
S1130760771F881FBB1F621773078407BA0720F01F
S1130770621B730B840BBA0BEE1F88F7E095089588
S113078098D088F09F5790F0B92F9927B751A0F0CF
S1130790D1F0660F771F881F991F1AF0BA95C9F711
S11307A012C0B13081F09FD0B1E008959CC0672F92
S11307B0782F8827B85F39F0B93FCCF386957795C1
S11307C06795B395D9F73EF49095809570956195AA
S11307D07F4F8F4F9F4F0895E89409C097FB3EF4D5
S11307E090958095709561957F4F8F4F9F4F99237A
S11307F0A9F0F92F96E9BB279395F69587957795F8
S11308006795B795F111F8CFFAF4BB0F11F460FFB7
S11308101BC06F5F7F4F8F4F9F4F16C0882311F00F
S113082096E911C0772321F09EE8872F762F05C023
S1130830662371F096E8862F70E060E02AF09A95BE
S1130840660F771F881FDAF7880F9695879597F9B3
S1130850089597F99F6780E870E060E008959FEF3E
S113086080EC089500240A94161617061806090643
S1130870089500240A941216130614060506089512
S1130880092E0394000C11F4882352F0BB0F40F49A
S1130890BF2B11F460FF04C06F5F7F4F8F4F9F4FDA
S11308A0089557FD9058440F551F59F05F3F71F05C
S11308B04795880F97FB991F61F09F3F79F08795C3
S11308C00895121613061406551FF2CF4695F1DF4C
S11308D008C0161617061806991FF1CF86957105DC
S11308E0610508940895E894BB2766277727CB0110
S11308F097F908950BD0C4CFB5DF28F0BADF18F00C
S1130900952309F0A6CFABCF1124EECFCADFA0F315
S1130910959FD1F3950F50E0551F629FF001729F90
S1130920BB27F00DB11D639FAA27F00DB11DAA1FAF
S1130930649F6627B00DA11D661F829F2227B00DFC
S1130940A11D621F739FB00DA11D621F839FA00D87
S1130950611D221F749F3327A00D611D231F849FD7
S1130960600D211D822F762F6A2F11249F5750402E
S11309708AF0E1F088234AF0EE0FFF1FBB1F661FC9
S1130980771F881F91505040A9F79E3F510570F082
S113099060CFAACF5F3FECF3983EDCF38695779562
S11309A06795B795F795E7959F5FC1F7FE2B880F7D
S11309B0911D9695879597F90895AEE0B0E0E3EE22
S11309C0F4E00C9485070D891E8986E08C831A83D4
S11309D009838FEF9FE79E838D83AE01475E5F4F50
S11309E06F89788DCE0101960E94FF04EF81F8850E
S11309F0E00FF11F10822E96E4E00C94A107ACE006
S1130A00B0E0E5E0F5E00C9477077C016B018A0126
S1130A10FC0117821682838181FFBDC1CE0101963C
S1130A204C01F7019381F60193FD859193FF819128
S1130A306F01882309F4ABC1853239F493FD8591A4
S1130A4093FF81916F01853229F4B70190E00E94F0
S1130A50E706E7CF512C312C20E02032A0F48B3272
S1130A6069F030F4803259F0833269F420612CC08B
S1130A708D3239F0803339F4216026C0226024603D
S1130A8023C0286021C027FD27C030ED380F3A303D
S1130A9078F426FF06C0FAE05F9E300D1124532E31
S1130AA013C08AE0389E300D1124332E20620CC00E
S1130AB08E3221F426FD6BC1206406C08C3611F4FD
S1130AC0206802C0883641F4F60193FD859193FFB6
S1130AD081916F018111C1CF982F9F7D95549330DF
S1130AE028F40C5F1F4FFFE3F9830DC0833631F008
S1130AF0833771F0833509F05BC022C0F80180812F
S1130B0089830E5F1F4F44244394512C540115C014
S1130B103801F2E06F0E711CF801A080B18026FF4D
S1130B2003C0652D70E002C06FEF7FEFC5012C8715
S1130B300E94DC062C0183012C852F77222E17C0FE
S1130B403801F2E06F0E711CF801A080B18026FF1D
S1130B5003C0652D70E002C06FEF7FEFC5012C87E5
S1130B600E94D1062C012C852068222E830123FCAF
S1130B701BC0832D90E048165906B0F4B70180E2FB
S1130B8090E00E94E7063A94F4CFF50127FC8591A2
S1130B9027FE81915F01B70190E00E94E7063110C2
S1130BA03A94F1E04F1A51084114510471F7E5C029
S1130BB0843611F0893639F5F80127FF07C06081C2
S1130BC07181828193810C5F1F4F08C060817181A4
S1130BD0882777FD8095982F0E5F1F4F2F76B22EB2
S1130BE097FF09C090958095709561957F4F8F4FC1
S1130BF09F4F2068B22E2AE030E0A4010E9419071A
S1130C00A82EA81844C0853729F42F7EB22E2AE0D6
S1130C1030E025C0F22FF97FBF2E8F36C1F018F4D3
S1130C20883579F0B4C0803719F0883721F0AFC027
S1130C302F2F2061B22EB4FE0DC08B2D8460B82EF0
S1130C4009C024FF0AC09F2F9660B92E06C028E071
S1130C5030E005C020E130E002C020E132E0F801DC
S1130C60B7FE07C060817181828193810C5F1F4F41
S1130C7006C06081718180E090E00E5F1F4FA40187
S1130C800E941907A82EA818FB2DFF77BF2EB6FEC9
S1130C900BC02B2D2E7FA51450F4B4FE0AC0B2FC59
S1130CA008C02B2D2E7E05C07A2C2B2D03C07A2C48
S1130CB001C0752C24FF0DC0FE01EA0DF11D8081D9
S1130CC0803311F4297E09C022FF06C07394739403
S1130CD004C0822F867809F0739423FD13C020FF8B
S1130CE006C05A2C731418F4530C5718732C73142D
S1130CF068F4B70180E290E02C870E94E7067394C1
S1130D002C85F5CF731410F4371801C0312C24FF4F
S1130D1012C0B70180E390E02C870E94E7062C857F
S1130D2022FF17C021FF03C088E590E002C088E7D6
S1130D3090E0B7010CC0822F867859F021FD02C0E3
S1130D4080E201C08BE227FD8DE2B70190E00E94B2
S1130D50E706A51438F4B70180E390E00E94E706A3
S1130D605A94F7CFAA94F401EA0DF11D8081B701DA
S1130D7090E00E94E706A110F5CF332009F451CE8C
S1130D80B70180E290E00E94E7063A94F6CFF701BB
S1130D908681978102C08FEF9FEF2C96E2E10C943D
S1130DA09307FC010590615070400110D8F78095BD
S1130DB090958E0F9F1F0895FC0161507040019023
S1130DC00110D8F7809590958E0F9F1F08950F936B
S1130DD01F93CF93DF93182F092FEB018B8181FD94
S1130DE003C08FEF9FEF20C082FF10C04E815F8150
S1130DF02C813D81421753077CF4E881F9819F01DE
S1130E002F5F3F4F39832883108306C0E885F98517
S1130E10812F0995892B29F72E813F812F5F3F4F21
S1130E203F832E83812F902FDF91CF911F910F91BC
S1130E300895FA01AA27283051F1203181F1E8946C
S1130E406F936E7F6E5F7F4F8F4F9F4FAF4FB1E0B9
S1130E503ED0B4E03CD0670F781F891F9A1FA11DB4
S1130E60680F791F8A1F911DA11D6A0F711D811DB5
S1130E70911DA11D20D009F468943F912AE0269F7A
S1130E8011243019305D3193DEF6CF010895462FD9
S1130E904770405D4193B3E00FD0C9F7F6CF462FBA
S1130EA04F70405D4A3318F0495D31FD4052419323
S1130EB002D0A9F7EACFB4E0A695979587957795E0
S1130EC06795BA95C9F700976105710508959B0167
S1130ED0AC010A2E06945795479537952795BA95F0
S1130EE0C9F7620F731F841F951FA01D08952F92C9
S1130EF03F924F925F926F927F928F929F92AF92A6
S1130F00BF92CF92DF92EF92FF920F931F93CF93F2
S1130F10DF93CDB7DEB7CA1BDB0B0FB6F894DEBF89
S1130F200FBECDBF09942A88398848885F846E84AF
S1130F307D848C849B84AA84B984C884DF80EE80F9
S1130F40FD800C811B81AA81B981CE0FD11D0FB602
S1130F50F894DEBF0FBECDBFED010895F894FFCF26
S1130F600000000000416E67756C6F203D004E5517
S1110F7045564F203D0020202020002564001F
S9030000FC
