S01A0000707261637469636120362063616E63696F6E2E7372656372
S11300000C942A000C943C000C943C000C943C008E
S11300100C943C000C943C000C943C000C943C006C
S11300200C943C000C943C000C943C000C943C005C
S11300300C943C000C943C000C943C000C943C004C
S11300400C943C000C943C000C943C000C943E003A
S11300500C943C0011241FBECFE5D4E0DEBFCDBF1D
S113006020E0A0E6B0E001C01D92A236B207E1F79D
S11300700E94DA000C94F2040C9400001F920F9278
S11300800FB60F9211248F939F9386B388BB8091F0
S113009060009091610001969093610080936000EC
S11300A09F918F910F900FBE0F901F901895F89409
S11300B0BB9A88E183BF83B7826083BF8DEE8CBF18
S11300C082E089BF78940895F89418BA83B78F7E34
S11300D083BF089583B7806183BF78940895CF92D6
S11300E0DF92EF92FF92CF93C82F7B01811113C04F
S11300F00E946400E114F10409F456C080E090E029
S1130100E9EFF0E03197F1F700C0000001968E1599
S11301109F05B1F749C00E946A00109261001092D5
S11301206000B70180E090E00E9401046B017C0153
S11301306C2F70E06F5F7F4F62957295707F7627AA
S1130140607F7627882777FD8095982F0E94030487
S11301509B01AC0160E074E284E799E40E946D03C2
S11301609B01AC0160E070E080E89FE30E946D03B6
S113017020E030E04AE754E40E948F049B01AC0184
S1130180C701B6010E946D039B01AC010E940903E3
S11301900E94D503F894CCBF78948091600090912C
S11301A0610086179707C8F3CF91FF90EF90DF9017
S11301B0CF9008950E9457006AEF70E089E60E948C
S11301C06F006AE070E080E00E946F006AEF70E008
S11301D089E60E946F006AE070E080E00E946F0090
S11301E06AEF70E089E60E946F006AE070E080E0E8
S11301F00E946F0064EF71E089E60E946F006AEF6D
S113020070E080E00E946F006AEF70E089E60E946F
S11302106F006AE070E080E00E946F0064EF71E0BC
S113022086E70E946F006AE070E080E00E946F0041
S11302306AEF70E085E80E946F006AE070E080E099
S11302400E946F0064EF71E081EB0E946F0064EF25
S113025071E080E00E946F006AEF70E085E80E9420
S11302606F006AE070E080E00E946F0064EF71E06C
S113027089E60E946F006AE070E080E00E946F00EF
S113028064EF71E089E60E946F006AE070E080E04C
S11302900E946F006AEF70E086E70E946F006AE0D8
S11302A070E080E00E946F006AEF70E085E80E94D1
S11302B06F006AE070E080E00E946F0068EE73E017
S11302C086E70E946F0060ED77E080E00E946F0097
S11302D06AEF70E085E80E946F006AE070E080E0F9
S11302E00E946F006AEF70E083E60E946F006AE08C
S11302F070E080E00E946F006AEF70E083E60E9485
S11303006F006AE070E080E00E946F0064EF71E0CB
S113031083E60E946F006AE070E080E00E946F0054
S11303206AEF70E088E50E946F006AE070E080E0A8
S11303300E946F0064EF71E089E60E946F006AE03A
S113034070E080E00E946F0064EF71E086E70E9435
S11303506F006AE070E080E00E946F0064EF71E07B
S113036085E80E946F0064EF71E080E00E946F00F6
S11303706AEF70E085E80E946F006AE070E080E058
S11303800E946F0064EF71E089E60E946F006AE0EA
S113039070E080E00E946F006AEF70E089E60E94DE
S11303A06F006AE070E080E00E946F0064EF71E02B
S11303B086E70E946F006AE070E080E00E946F00B0
S11303C06AEF70E085E80E946F006AE070E080E008
S11303D00E946F0062EE74E089E60E946F0068EE8E
S11303E073E080E00E946F006AEF70E083ED0E948A
S11303F06F006AE070E080E00E946F006AEF70E0D6
S113040081EB0E946F006AE070E080E00E946F0060
S11304106EEE72E08EE90E946F006AE070E080E0A8
S11304200E946F006AEF70E083ED0E946F006AE043
S113043070E080E00E946F006AEF70E083ED0E943C
S11304406F006AE070E080E00E946F006AEF70E085
S113045081EB0E946F006AE070E080E00E946F0010
S11304606AEF70E08EE90E946F006AE070E080E05D
S11304700E946F006AEF70E081EB0E946F006AE0F7
S113048070E080E00E946F006AEF70E08EE90E94E5
S11304906F006AE070E080E00E946F0064EF71E03A
S11304A088E50E946F006AE070E080E00E946F00BF
S11304B06AEF70E089E60E946F006AE070E080E015
S11304C00E946F006AEF70E086E70E946F006AE0A6
S11304D070E080E00E946F006AEF70E089E60E949D
S11304E06F006AE070E080E00E946F006AEF70E0E5
S11304F086E70E946F006AE070E080E00E946F006F
S11305006EEE72E085E80E946F006EEE72E080E0AD
S11305100E946F006AEF70E089E60E946F006AE053
S113052070E080E00E946F006AEF70E08EE40E9449
S11305306F006AE070E080E00E946F006AEF70E094
S113054086E40E946F006AE070E080E00E946F0021
S11305506AEF70E082E40E946F006AE070E080E07D
S11305600E946F0064EF71E086E40E946F006AE00D
S113057070E080E00E946F006AEF70E086E40E9401
S11305806F006AE070E080E00E946F006AEF70E044
S11305908EE40E946F006AE070E080E00E946F00C9
S11305A06AEF70E086E40E946F006AE070E080E029
S11305B00E946F006AEF70E08EE40E946F006AE0B0
S11305C070E080E00E946F006AEF70E083ED0E94AB
S11305D06F006AE070E080E00E946F006AEF70E0F4
S11305E081EB0E946F006AE070E080E00E946F007F
S11305F06EEE72E08EE90E946F006AE070E080E0C7
S11306000E946F0068EE73E080E00E946F00D4CD1A
S11306105058BB27AA270ED048C139D130F03ED15B
S113062020F031F49F3F11F41EF42EC10EF4E09536
S1130630E7FB24C1E92F4AD180F3BA176207730795
S11306408407950718F071F49EF562C10EF4E095E5
S11306500B2EBA2FA02D0B01B90190010C01CA0178
S1130660A0011124FF27591B99F0593F50F4503E23
S113067068F11A16F040A22F232F342F4427585F15
S1130680F3CF469537952795A795F0405395C9F72D
S11306907EF41F16BA0B620B730B840BBAF09150E5
S11306A0A1F0FF0FBB1F661F771F881FC2F70EC084
S11306B0BA0F621F731F841F48F487957795679557
S11306C0B795F7959E3F08F0B3CF9395880F08F040
S11306D09927EE0F9795879508950CD0E6C0DED044
S11306E040F0D5D030F021F45F3F19F0C7C051116C
S11306F010C1CAC0EBD098F39923C9F35523B1F3C1
S1130700951B550BBB27AA2762177307840738F07C
S11307109F5F5F4F220F331F441FAA1FA9F333D0DB
S11307200E2E3AF0E0E830D091505040E695001C8F
S1130730CAF729D0FE2F27D0660F771F881FBB1F4B
S1130740261737074807AB07B0E809F0BB0B802D25
S1130750BF01FF2793585F4F2AF09E3F510568F071
S11307608DC0D7C05F3FECF3983EDCF38695779558
S11307706795B795F7959F5FC9F7880F911D969573
S1130780879597F90895E1E0660F771F881FBB1FCF
S1130790621773078407BA0720F0621B730B840B7C
S11307A0BA0BEE1F88F7E095089598D088F09F570C
S11307B090F0B92F9927B751A0F0D1F0660F771FA9
S11307C0881F991F1AF0BA95C9F712C0B13081F089
S11307D09FD0B1E008959CC0672F782F8827B85F19
S11307E039F0B93FCCF3869577956795B395D9F7EA
S11307F03EF490958095709561957F4F8F4F9F4FF4
S11308000895E89409C097FB3EF4909580957095FF
S113081061957F4F8F4F9F4F9923A9F0F92F96E948
S1130820BB279395F695879577956795B795F111BD
S1130830F8CFFAF4BB0F11F460FF1BC06F5F7F4F5A
S11308408F4F9F4F16C0882311F096E911C077236C
S113085021F09EE8872F762F05C0662371F096E875
S1130860862F70E060E02AF09A95660F771F881F44
S1130870DAF7880F9695879597F9089597F99F6702
S113088080E870E060E008959FEF80EC0895002414
S11308900A941616170618060906089500240A94E1
S11308A012161306140605060895092E0394000C67
S11308B011F4882352F0BB0F40F4BF2B11F460FFF6
S11308C004C06F5F7F4F8F4F9F4F089557FD90581F
S11308D0440F551F59F05F3F71F04795880F97FB00
S11308E0991F61F09F3F79F08795089512161306BA
S11308F01406551FF2CF4695F1DF08C016161706E9
S11309001806991FF1CF869571056105089408951D
S1130910E894BB2766277727CB0197F908950BD076
S1130920C4CFB5DF28F0BADF18F0952309F0A6CFBD
S1130930ABCF1124EECFCADFA0F3959FD1F3950F6F
S113094050E0551F629FF001729FBB27F00DB11D4F
S1130950639FAA27F00DB11DAA1F649F6627B00DDF
S1130960A11D661F829F2227B00DA11D621F739FC8
S1130970B00DA11D621F839FA00D611D221F749FD6
S11309803327A00D611D231F849F600D211D822F1D
S1130990762F6A2F11249F5750408AF0E1F0882364
S11309A04AF0EE0FFF1FBB1F661F771F881F915071
S11309B05040A9F79E3F510570F060CFAACF5F3F2A
S11309C0ECF3983EDCF3869577956795B795F795A4
S11309D0E7959F5FC1F7FE2B880F911D969587952C
S10B09E097F90895F894FFCF84
S9030000FC
