S01B00005072616374696361335F615F7465636C61646F2E73726563B4
S11300000C942A000C943F000C943F000C943F0085
S11300100C943F000C943F000C943F000C943F0060
S11300200C943F000C943F000C943F000C943F0050
S11300300C943F000C943F000C943F000C943F0040
S11300400C943F000C943F000C943F000C943F0030
S11300500C943F0011241FBECFE5D4E0DEBFCDBF1A
S113006010E0A0E6B0E0E6E0F9E002C005900D92F1
S1130070AE37B107D9F70E9441000C9481040C9467
S11300800000CF93DF9300D0CDB7DEB78FEF84BBF2
S113009090EF91BB8ABB15BA0E94070181EE94E0F0
S11300A00197F1F700C000000E94B4030E946D04A0
S11300B081EE94E00197F1F700C000000E94030470
S11300C089831A82803291F3813469F030F4833267
S11300D0F1F18A3209F448C065C08334F1F080F04C
S11300E0843441F15FC084E00E941A019FE926E84C
S11300F081E0915020408040E1F700C00000D6CF5D
S113010085E00E941A019FE926E881E09150204091
S11301108040E1F700C00000C9CF86E00E941A01C8
S11301209FE926E881E0915020408040E1F700C03B
S11301300000BCCF87E00E941A019FE926E881E015
S1130140915020408040E1F700C00000AFCF80E034
S11301500E94B0039FE926E881E09150204080404E
S1130160E1F700C00000A2CF0E94AC0381EE94E04E
S11301700197F1F700C000008CE790E00E9495031E
S113018081EE94E00197F1F700C000000E94AC03F7
S11301909FE926E881E0915020408040E1F700C0CB
S11301A0000084CFCE0101960E9495039FE926E8C2
S11301B081E0915020408040E1F700C0000076CFFC
S11301C0982F907F95BBAA98AB9AE9EFF0E031970E
S11301D0F1F700C00000AB98E3ECF9E03197F1F7D8
S11301E000C00000F0E18F9FC001112485BBAA98D4
S11301F0AB9A89EF90E00197F1F700C00000AB984B
S1130200E3ECF9E03197F1F700C00000089582E0D3
S11302100E94E00088E20E94E0008EE00E94E0007C
S113022086E00E94E00081E00E94E00080E80E94F5
S1130230E0000895982F907F95BB95B39C6095BB83
S1130240E9EFF0E03197F1F700C00000AB98AA980D
S1130250E3ECF9E03197F1F700C00000F0E18F9F83
S1130260C001112485BB85B38C6085BB89EF90E008
S11302700197F1F700C00000AB98AA98E3ECF9E00D
S11302803197F1F700C00000089580E40E94E00077
S113029089EF90E00197F1F700C000008FE10E9420
S11302A01A0189EF90E00197F1F700C0000085E1A1
S11302B00E941A0189EF90E00197F1F700C0000055
S11302C085E10E941A0189EF90E00197F1F700C0DF
S11302D000008FE10E941A0189EF90E00197F1F785
S11302E000C000008AE00E941A0189EF90E00197A3
S11302F0F1F700C0000085E10E941A0189EF90E047
S11303000197F1F700C000008FE10E941A0189EF04
S113031090E00197F1F700C0000080E00E941A010C
S113032089EF90E00197F1F700C00000089588E498
S11303300E94E00089EF90E00197F1F700C000000F
S113034080E00E941A0189EF90E00197F1F700C064
S113035000008AE00E941A0189EF90E00197F1F70A
S113036000C000008FE10E941A0189EF90E001971C
S1130370F1F700C000008FE10E941A0189EF90E0BC
S11303800197F1F700C000008FE10E941A0189EF84
S113039090E00197F1F700C000008EE00E941A017E
S11303A089EF90E00197F1F700C0000084E00E941B
S11303B01A0189EF90E00197F1F700C0000080E096
S11303C00E941A0189EF90E00197F1F700C0000044
S11303D0089580E50E94E00089EF90E00197F1F72D
S11303E000C0000080E00E941A0189EF90E00197AC
S11303F0F1F700C0000083E00E941A0189EF90E049
S11304000197F1F700C0000087E00E941A0189EF0C
S113041090E00197F1F700C0000086E10E941A0104
S113042089EF90E00197F1F700C0000088E00E9496
S11304301A0189EF90E00197F1F700C0000084E110
S11304400E941A0189EF90E00197F1F700C00000C3
S113045080E00E941A0189EF90E00197F1F700C053
S1130460000080E00E941A0189EF90E00197F1F703
S113047000C00000089588E50E94E00089EF90E044
S11304800197F1F700C0000080E00E941A0189EF93
S113049090E00197F1F700C0000080E00E941A018B
S11304A089EF90E00197F1F700C0000080E00E941E
S11304B01A0189EF90E00197F1F700C0000084E190
S11304C00E941A0189EF90E00197F1F700C0000043
S11304D088E00E941A0189EF90E00197F1F700C0CB
S11304E0000086E10E941A0189EF90E00197F1F77C
S11304F000C0000087E00E941A0189EF90E0019794
S1130500F1F700C0000083E00E941A0189EF90E037
S11305100197F1F700C000000895EF92FF920F9346
S11305201F93CF93DF93CDB7DEB727970FB6F89419
S1130530DEBF0FBECDBF87E0E0E6F0E0DE0111963E
S113054001900D928A95E1F780E60E94E00089EF20
S113055090E00197F1F700C000008E010F5F1F4F7C
S11305607E0198E0E90EF11CF80181918F010E944F
S11305701A0189EF90E00197F1F700C000000E1511
S11305801F0591F727960FB6F894DEBF0FBECDBFB7
S1130590DF91CF911F910F91FF90EF900895EF920B
S11305A0FF920F931F93CF93DF93CDB7DEB72797B7
S11305B00FB6F894DEBF0FBECDBF87E0E7E6F0E0EC
S11305C0DE01119601900D928A95E1F788E60E946A
S11305D0E00089EF90E00197F1F700C000008E0180
S11305E00F5F1F4F7E0198E0E90EF11CF801819125
S11305F08F010E941A0189EF90E00197F1F700C082
S113060000000E151F0591F727960FB6F894DEBF6C
S11306100FBECDBFDF91CF911F910F91FF90EF904F
S11306200895EF92FF920F931F93CF93DF93CDB76B
S1130630DEB727970FB6F894DEBF0FBECDBF87E0B5
S1130640EEE6F0E0DE01119601900D928A95E1F755
S113065080E70E94E00089EF90E00197F1F700C085
S113066000008E010F5F1F4F7E0198E0E90EF11C20
S1130670F80181918F010E941A0189EF90E001979E
S1130680F1F700C000000E151F0591F727960FB66D
S1130690F894DEBF0FBECDBFDF91CF911F910F91B4
S11306A0FF90EF900895EF92FF920F931F93CF93D3
S11306B0DF93CDB7DEB727970FB6F894DEBF0FBE32
S11306C0CDBF87E0E5E7F0E0DE01119601900D92E1
S11306D08A95E1F788E70E94E00089EF90E00197AE
S11306E0F1F700C000008E010F5F1F4F7E0198E0FC
S11306F0E90EF11CF80181918F010E941A0189EF22
S113070090E00197F1F700C000000E151F0591F766
S113071027960FB6F894DEBF0FBECDBFDF91CF9101
S11307201F910F91FF90EF900895CF93DF93EC0109
S11307308881882331F021960E941A0189918111C0
S1130740FBCFDF91CF91089581E00E94E0000895EE
S113075082E00E94E000089580E10E94E000089594
S1130760806C0E94E00008950E94A40381EE94E04E
S11307700197F1F700C000000E94A8030E94450100
S113078081EE94E00197F1F700C000000E94970108
S113079081EE94E00197F1F700C000000E94E901A6
S11307A081EE94E00197F1F700C000000E943B0243
S11307B081EE94E00197F1F700C000000E948D02E1
S11307C081EE94E00197F1F700C000000E94CF028F
S11307D081EE94E00197F1F700C000000E9411033C
S11307E081EE94E00197F1F700C000000E945303EA
S11307F00E94A40381EE94E00197F1F700C0000089
S11308000E94A803089582B38BBB82B38F3B99F1F6
S113081020F48F3709F443C056C08F3DC1F08F3E9A
S113082009F051C080B38F708B3069F018F48730B1
S113083061F005C08D3029F08E3009F446C080E2A5
S1130840089582E3089583E3089581E4089580B3CD
S11308508F708B3061F018F4873059F004C08D30FC
S113086021F08E30A1F180E2089585E3089586E3B6
S1130870089582E4089580B38F708B3061F018F48A
S1130880873059F004C08D3021F08E3011F180E2B0
S1130890089588E3089589E3089583E4089580B36F
S11308A08F708B3061F018F4873059F004C08D30AC
S11308B021F08E3081F080E2089580E3089583E290
S11308C0089584E4089580E2089581E3089584E31B
S11308D0089587E308958AE2089582B38F3D41F035
S11308E08F3E19F08F3B51F406C08FED82BB089503
S11308F08FEB82BB08958FE782BB08958FEE82BB96
S10909000895F894FFCFF6
S11309060E1F151F1F1F0A1F15151F15151F111161
S11109161B1F1F1F0E11150A1F1515002000B0
S9030000FC
